{
  "_format": "hh-sol-artifact-1",
  "contractName": "Raffle",
  "sourceName": "contracts/Raffle.sol",
  "abi": [
    {
      "inputs": [
        {
          "internalType": "address",
          "name": "vrfCoordinatorV2",
          "type": "address"
        },
        {
          "internalType": "bytes32",
          "name": "gasLine",
          "type": "bytes32"
        },
        {
          "internalType": "uint256",
          "name": "entranceFree",
          "type": "uint256"
        },
        {
          "internalType": "uint64",
          "name": "subscriptionId",
          "type": "uint64"
        },
        {
          "internalType": "uint32",
          "name": "callbackGasLimit",
          "type": "uint32"
        },
        {
          "internalType": "uint256",
          "name": "interval",
          "type": "uint256"
        }
      ],
      "stateMutability": "nonpayable",
      "type": "constructor"
    },
    {
      "inputs": [
        {
          "internalType": "address",
          "name": "have",
          "type": "address"
        },
        {
          "internalType": "address",
          "name": "want",
          "type": "address"
        }
      ],
      "name": "OnlyCoordinatorCanFulfill",
      "type": "error"
    },
    {
      "inputs": [],
      "name": "Raffle__NOTEnoughETHError",
      "type": "error"
    },
    {
      "inputs": [],
      "name": "Raffle__NotOpen",
      "type": "error"
    },
    {
      "inputs": [],
      "name": "Raffle__TransferFailed",
      "type": "error"
    },
    {
      "inputs": [
        {
          "internalType": "uint256",
          "name": "balance",
          "type": "uint256"
        },
        {
          "internalType": "uint256",
          "name": "playersCount",
          "type": "uint256"
        },
        {
          "internalType": "uint256",
          "name": "raffleState",
          "type": "uint256"
        }
      ],
      "name": "Raffle__UpKeepNotNeeded",
      "type": "error"
    },
    {
      "anonymous": false,
      "inputs": [
        {
          "indexed": true,
          "internalType": "address",
          "name": "player",
          "type": "address"
        }
      ],
      "name": "RaffleEnter",
      "type": "event"
    },
    {
      "anonymous": false,
      "inputs": [
        {
          "indexed": true,
          "internalType": "uint256",
          "name": "requrestId",
          "type": "uint256"
        }
      ],
      "name": "RequrestedRaffleWinner",
      "type": "event"
    },
    {
      "anonymous": false,
      "inputs": [
        {
          "indexed": true,
          "internalType": "address",
          "name": "winner",
          "type": "address"
        }
      ],
      "name": "WinnerPicked",
      "type": "event"
    },
    {
      "inputs": [
        {
          "internalType": "bytes",
          "name": "",
          "type": "bytes"
        }
      ],
      "name": "checkUpkeep",
      "outputs": [
        {
          "internalType": "bool",
          "name": "upkeepNeeded",
          "type": "bool"
        },
        {
          "internalType": "bytes",
          "name": "",
          "type": "bytes"
        }
      ],
      "stateMutability": "view",
      "type": "function"
    },
    {
      "inputs": [],
      "name": "enterRaffle",
      "outputs": [],
      "stateMutability": "payable",
      "type": "function"
    },
    {
      "inputs": [],
      "name": "getEntranceFee",
      "outputs": [
        {
          "internalType": "uint256",
          "name": "",
          "type": "uint256"
        }
      ],
      "stateMutability": "view",
      "type": "function"
    },
    {
      "inputs": [],
      "name": "getGasLine",
      "outputs": [
        {
          "internalType": "bytes32",
          "name": "",
          "type": "bytes32"
        }
      ],
      "stateMutability": "view",
      "type": "function"
    },
    {
      "inputs": [],
      "name": "getInterval",
      "outputs": [
        {
          "internalType": "uint256",
          "name": "",
          "type": "uint256"
        }
      ],
      "stateMutability": "view",
      "type": "function"
    },
    {
      "inputs": [],
      "name": "getNumberOfPlayers",
      "outputs": [
        {
          "internalType": "uint256",
          "name": "",
          "type": "uint256"
        }
      ],
      "stateMutability": "view",
      "type": "function"
    },
    {
      "inputs": [
        {
          "internalType": "uint256",
          "name": "index",
          "type": "uint256"
        }
      ],
      "name": "getPlayer",
      "outputs": [
        {
          "internalType": "address",
          "name": "",
          "type": "address"
        }
      ],
      "stateMutability": "view",
      "type": "function"
    },
    {
      "inputs": [],
      "name": "getRaffleState",
      "outputs": [
        {
          "internalType": "enum Raffle.RaffleState",
          "name": "",
          "type": "uint8"
        }
      ],
      "stateMutability": "view",
      "type": "function"
    },
    {
      "inputs": [],
      "name": "getRecentWinner",
      "outputs": [
        {
          "internalType": "address",
          "name": "",
          "type": "address"
        }
      ],
      "stateMutability": "view",
      "type": "function"
    },
    {
      "inputs": [
        {
          "internalType": "bytes",
          "name": "",
          "type": "bytes"
        }
      ],
      "name": "performUpkeep",
      "outputs": [],
      "stateMutability": "nonpayable",
      "type": "function"
    },
    {
      "inputs": [
        {
          "internalType": "uint256",
          "name": "requestId",
          "type": "uint256"
        },
        {
          "internalType": "uint256[]",
          "name": "randomWords",
          "type": "uint256[]"
        }
      ],
      "name": "rawFulfillRandomWords",
      "outputs": [],
      "stateMutability": "nonpayable",
      "type": "function"
    }
  ],
  "bytecode": "0x6101606040523480156200001257600080fd5b506040516200181f3803806200181f8339818101604052810190620000389190620001ad565b858073ffffffffffffffffffffffffffffffffffffffff1660808173ffffffffffffffffffffffffffffffffffffffff1660601b81525050508360a081815250508573ffffffffffffffffffffffffffffffffffffffff1660c08173ffffffffffffffffffffffffffffffffffffffff1660601b815250508460e081815250508267ffffffffffffffff166101008167ffffffffffffffff1660c01b815250508163ffffffff166101208163ffffffff1660e01b815250506000600160146101000a81548160ff02191690836001811115620001195762000118620002b5565b5b0217905550806101408181525050426002819055505050505050506200036b565b6000815190506200014b81620002e9565b92915050565b600081519050620001628162000303565b92915050565b60008151905062000179816200031d565b92915050565b600081519050620001908162000337565b92915050565b600081519050620001a78162000351565b92915050565b60008060008060008060c08789031215620001cd57620001cc620002e4565b5b6000620001dd89828a016200013a565b9650506020620001f089828a0162000151565b95505060406200020389828a0162000168565b94505060606200021689828a0162000196565b93505060806200022989828a016200017f565b92505060a06200023c89828a0162000168565b9150509295509295509295565b6000620002568262000267565b9050919050565b6000819050919050565b600073ffffffffffffffffffffffffffffffffffffffff82169050919050565b6000819050919050565b600063ffffffff82169050919050565b600067ffffffffffffffff82169050919050565b7f4e487b7100000000000000000000000000000000000000000000000000000000600052602160045260246000fd5b600080fd5b620002f48162000249565b81146200030057600080fd5b50565b6200030e816200025d565b81146200031a57600080fd5b50565b620003288162000287565b81146200033457600080fd5b50565b620003428162000291565b81146200034e57600080fd5b50565b6200035c81620002a1565b81146200036857600080fd5b50565b60805160601c60a05160c05160601c60e0516101005160c01c6101205160e01c61014051611431620003ee6000396000818161072c01526107e90152600061061f015260006105fc0152600081816105db01526107c10152600061059f01526000818161027e01526103e80152600081816102bb015261030f01526114316000f3fe60806040526004361061009c5760003560e01c8063473f1ddc11610064578063473f1ddc146101535780636e04ff0d1461017e5780636fef99e8146101bc57806391ad27b4146101e7578063e55ae4e814610212578063fd6673f51461024f5761009c565b806309bc33a7146100a1578063115cbaf5146100cc5780631fe543e3146100f75780632cfcc539146101205780634585e33b1461012a575b600080fd5b3480156100ad57600080fd5b506100b661027a565b6040516100c39190611037565b60405180910390f35b3480156100d857600080fd5b506100e16102a2565b6040516100ee919061101c565b60405180910390f35b34801561010357600080fd5b5061011e60048036038101906101199190610df5565b6102b9565b005b610128610379565b005b34801561013657600080fd5b50610151600480360381019061014c9190610d05565b6104e8565b005b34801561015f57600080fd5b506101686106e7565b6040516101759190610f3a565b60405180910390f35b34801561018a57600080fd5b506101a560048036038101906101a09190610d52565b610711565b6040516101b3929190610f7e565b60405180910390f35b3480156101c857600080fd5b506101d16107bd565b6040516101de9190610fae565b60405180910390f35b3480156101f357600080fd5b506101fc6107e5565b6040516102099190611037565b60405180910390f35b34801561021e57600080fd5b5061023960048036038101906102349190610d9b565b61080d565b6040516102469190610f3a565b60405180910390f35b34801561025b57600080fd5b50610264610854565b6040516102719190611037565b60405180910390f35b60007f0000000000000000000000000000000000000000000000000000000000000000905090565b6000600160149054906101000a900460ff16905090565b7f000000000000000000000000000000000000000000000000000000000000000073ffffffffffffffffffffffffffffffffffffffff163373ffffffffffffffffffffffffffffffffffffffff161461036b57337f00000000000000000000000000000000000000000000000000000000000000006040517f1cf993f4000000000000000000000000000000000000000000000000000000008152600401610362929190610f55565b60405180910390fd5b6103758282610860565b5050565b6000600181111561038d5761038c611311565b5b600160149054906101000a900460ff1660018111156103af576103ae611311565b5b146103e6576040517f1425571c00000000000000000000000000000000000000000000000000000000815260040160405180910390fd5b7f0000000000000000000000000000000000000000000000000000000000000000341015610440576040517f940e2f9300000000000000000000000000000000000000000000000000000000815260040160405180910390fd5b6000339080600181540180825580915050600190039060005260206000200160009091909190916101000a81548173ffffffffffffffffffffffffffffffffffffffff021916908373ffffffffffffffffffffffffffffffffffffffff1602179055503373ffffffffffffffffffffffffffffffffffffffff167f0805e1d667bddb8a95f0f09880cf94f403fb596ce79928d9f29b74203ba284d460405160405180910390a2565b600061050260405180602001604052806000815250610711565b509050806105715747600080549050600160149054906101000a900460ff16600181111561053357610532611311565b5b6040517f3a8d608600000000000000000000000000000000000000000000000000000000815260040161056893929190611052565b60405180910390fd5b60018060146101000a81548160ff0219169083600181111561059657610595611311565b5b021790555060007f000000000000000000000000000000000000000000000000000000000000000073ffffffffffffffffffffffffffffffffffffffff16635d3b1d307f00000000000000000000000000000000000000000000000000000000000000007f000000000000000000000000000000000000000000000000000000000000000060037f000000000000000000000000000000000000000000000000000000000000000060016040518663ffffffff1660e01b8152600401610660959493929190610fc9565b602060405180830381600087803b15801561067a57600080fd5b505af115801561068e573d6000803e3d6000fd5b505050506040513d601f19601f820116820180604052508101906106b29190610dc8565b9050807f1fdb98b76b1b3b27773e9b68731f3f794f7fa77cc7944398a85c3cce41c7524760405160405180910390a250505050565b6000600160009054906101000a900473ffffffffffffffffffffffffffffffffffffffff16905090565b600060606000804711905060008060008054905011905060007f0000000000000000000000000000000000000000000000000000000000000000600254426107599190611132565b119050600080600181111561077157610770611311565b5b600160149054906101000a900460ff16600181111561079357610792611311565b5b1490508380156107a05750825b80156107a95750815b80156107b25750805b955050505050915091565b60007f0000000000000000000000000000000000000000000000000000000000000000905090565b60007f0000000000000000000000000000000000000000000000000000000000000000905090565b600080828154811061082257610821611340565b5b9060005260206000200160009054906101000a900473ffffffffffffffffffffffffffffffffffffffff169050919050565b60008080549050905090565b600080805490508260008151811061087b5761087a611340565b5b602002602001015161088d9190611282565b9050600081815481106108a3576108a2611340565b5b9060005260206000200160009054906101000a900473ffffffffffffffffffffffffffffffffffffffff16600160006101000a81548173ffffffffffffffffffffffffffffffffffffffff021916908373ffffffffffffffffffffffffffffffffffffffff1602179055506000600160009054906101000a900473ffffffffffffffffffffffffffffffffffffffff1673ffffffffffffffffffffffffffffffffffffffff164760405161095690610f25565b60006040518083038185875af1925050503d8060008114610993576040519150601f19603f3d011682016040523d82523d6000602084013e610998565b606091505b505090506000600160146101000a81548160ff021916908360018111156109c2576109c1611311565b5b02179055504260028190555080610a05576040517fa1d04b3900000000000000000000000000000000000000000000000000000000815260040160405180910390fd5b600067ffffffffffffffff811115610a2057610a1f61136f565b5b604051908082528060200260200182016040528015610a4e5781602001602082028036833780820191505090505b5060009080519060200190610a64929190610ad0565b50600160009054906101000a900473ffffffffffffffffffffffffffffffffffffffff1673ffffffffffffffffffffffffffffffffffffffff167f5b690ec4a06fe979403046eaeea5b3ce38524683c3001f662c8b5a829632f7df60405160405180910390a250505050565b828054828255906000526020600020908101928215610b49579160200282015b82811115610b485782518260006101000a81548173ffffffffffffffffffffffffffffffffffffffff021916908373ffffffffffffffffffffffffffffffffffffffff16021790555091602001919060010190610af0565b5b509050610b569190610b5a565b5090565b5b80821115610b73576000816000905550600101610b5b565b5090565b6000610b8a610b85846110ae565b611089565b90508083825260208201905082856020860282011115610bad57610bac6113a8565b5b60005b85811015610bdd5781610bc38882610cdb565b845260208401935060208301925050600181019050610bb0565b5050509392505050565b6000610bfa610bf5846110da565b611089565b905082815260208101848484011115610c1657610c156113ad565b5b610c2184828561120f565b509392505050565b600082601f830112610c3e57610c3d6113a3565b5b8135610c4e848260208601610b77565b91505092915050565b60008083601f840112610c6d57610c6c6113a3565b5b8235905067ffffffffffffffff811115610c8a57610c8961139e565b5b602083019150836001820283011115610ca657610ca56113a8565b5b9250929050565b600082601f830112610cc257610cc16113a3565b5b8135610cd2848260208601610be7565b91505092915050565b600081359050610cea816113e4565b92915050565b600081519050610cff816113e4565b92915050565b60008060208385031215610d1c57610d1b6113b7565b5b600083013567ffffffffffffffff811115610d3a57610d396113b2565b5b610d4685828601610c57565b92509250509250929050565b600060208284031215610d6857610d676113b7565b5b600082013567ffffffffffffffff811115610d8657610d856113b2565b5b610d9284828501610cad565b91505092915050565b600060208284031215610db157610db06113b7565b5b6000610dbf84828501610cdb565b91505092915050565b600060208284031215610dde57610ddd6113b7565b5b6000610dec84828501610cf0565b91505092915050565b60008060408385031215610e0c57610e0b6113b7565b5b6000610e1a85828601610cdb565b925050602083013567ffffffffffffffff811115610e3b57610e3a6113b2565b5b610e4785828601610c29565b9150509250929050565b610e5a81611166565b82525050565b610e6981611178565b82525050565b610e7881611184565b82525050565b6000610e898261110b565b610e938185611116565b9350610ea381856020860161121e565b610eac816113bc565b840191505092915050565b610ec0816111fd565b82525050565b6000610ed3600083611127565b9150610ede826113cd565b600082019050919050565b610ef2816111a1565b82525050565b610f01816111cf565b82525050565b610f10816111d9565b82525050565b610f1f816111e9565b82525050565b6000610f3082610ec6565b9150819050919050565b6000602082019050610f4f6000830184610e51565b92915050565b6000604082019050610f6a6000830185610e51565b610f776020830184610e51565b9392505050565b6000604082019050610f936000830185610e60565b8181036020830152610fa58184610e7e565b90509392505050565b6000602082019050610fc36000830184610e6f565b92915050565b600060a082019050610fde6000830188610e6f565b610feb6020830187610f16565b610ff86040830186610ee9565b6110056060830185610f07565b6110126080830184610f07565b9695505050505050565b60006020820190506110316000830184610eb7565b92915050565b600060208201905061104c6000830184610ef8565b92915050565b60006060820190506110676000830186610ef8565b6110746020830185610ef8565b6110816040830184610ef8565b949350505050565b60006110936110a4565b905061109f8282611251565b919050565b6000604051905090565b600067ffffffffffffffff8211156110c9576110c861136f565b5b602082029050602081019050919050565b600067ffffffffffffffff8211156110f5576110f461136f565b5b6110fe826113bc565b9050602081019050919050565b600081519050919050565b600082825260208201905092915050565b600081905092915050565b600061113d826111cf565b9150611148836111cf565b92508282101561115b5761115a6112b3565b5b828203905092915050565b6000611171826111af565b9050919050565b60008115159050919050565b6000819050919050565b600081905061119c826113d0565b919050565b600061ffff82169050919050565b600073ffffffffffffffffffffffffffffffffffffffff82169050919050565b6000819050919050565b600063ffffffff82169050919050565b600067ffffffffffffffff82169050919050565b60006112088261118e565b9050919050565b82818337600083830152505050565b60005b8381101561123c578082015181840152602081019050611221565b8381111561124b576000848401525b50505050565b61125a826113bc565b810181811067ffffffffffffffff821117156112795761127861136f565b5b80604052505050565b600061128d826111cf565b9150611298836111cf565b9250826112a8576112a76112e2565b5b828206905092915050565b7f4e487b7100000000000000000000000000000000000000000000000000000000600052601160045260246000fd5b7f4e487b7100000000000000000000000000000000000000000000000000000000600052601260045260246000fd5b7f4e487b7100000000000000000000000000000000000000000000000000000000600052602160045260246000fd5b7f4e487b7100000000000000000000000000000000000000000000000000000000600052603260045260246000fd5b7f4e487b7100000000000000000000000000000000000000000000000000000000600052604160045260246000fd5b600080fd5b600080fd5b600080fd5b600080fd5b600080fd5b600080fd5b6000601f19601f8301169050919050565b50565b600281106113e1576113e0611311565b5b50565b6113ed816111cf565b81146113f857600080fd5b5056fea264697066735822122034711a32404854450d77a88bbabc982ab02c3eead137267f41fd5c8cfb67a89464736f6c63430008070033",
  "linkReferences": {},
  "deployedLinkReferences": {}
}