{
  "_format": "hh-sol-artifact-1",
  "contractName": "Raffle",
  "sourceName": "contracts/Raffle.sol",
  "abi": [
    {
      "inputs": [
        {
          "internalType": "address",
          "name": "vrfCoordinatorV2",
          "type": "address"
        },
        {
          "internalType": "uint256",
          "name": "entranceFree",
          "type": "uint256"
        },
        {
          "internalType": "bytes32",
          "name": "gasLine",
          "type": "bytes32"
        },
        {
          "internalType": "uint64",
          "name": "subscriptionId",
          "type": "uint64"
        },
        {
          "internalType": "uint32",
          "name": "callbackGasLimit",
          "type": "uint32"
        },
        {
          "internalType": "uint256",
          "name": "interval",
          "type": "uint256"
        }
      ],
      "stateMutability": "nonpayable",
      "type": "constructor"
    },
    {
      "inputs": [
        {
          "internalType": "address",
          "name": "have",
          "type": "address"
        },
        {
          "internalType": "address",
          "name": "want",
          "type": "address"
        }
      ],
      "name": "OnlyCoordinatorCanFulfill",
      "type": "error"
    },
    {
      "inputs": [],
      "name": "Raffle__NOTEnoughETHError",
      "type": "error"
    },
    {
      "inputs": [],
      "name": "Raffle__NotOpen",
      "type": "error"
    },
    {
      "inputs": [],
      "name": "Raffle__TransferFailed",
      "type": "error"
    },
    {
      "inputs": [
        {
          "internalType": "uint256",
          "name": "balance",
          "type": "uint256"
        },
        {
          "internalType": "uint256",
          "name": "playersCount",
          "type": "uint256"
        },
        {
          "internalType": "uint256",
          "name": "raffleState",
          "type": "uint256"
        }
      ],
      "name": "Raffle__UpKeepNotNeeded",
      "type": "error"
    },
    {
      "anonymous": false,
      "inputs": [
        {
          "indexed": true,
          "internalType": "address",
          "name": "player",
          "type": "address"
        }
      ],
      "name": "RaffleEnter",
      "type": "event"
    },
    {
      "anonymous": false,
      "inputs": [
        {
          "indexed": true,
          "internalType": "uint256",
          "name": "requrestId",
          "type": "uint256"
        }
      ],
      "name": "RequrestedRaffleWinner",
      "type": "event"
    },
    {
      "anonymous": false,
      "inputs": [
        {
          "indexed": true,
          "internalType": "address",
          "name": "winner",
          "type": "address"
        }
      ],
      "name": "WinnerPicked",
      "type": "event"
    },
    {
      "inputs": [
        {
          "internalType": "bytes",
          "name": "",
          "type": "bytes"
        }
      ],
      "name": "checkUpkeep",
      "outputs": [
        {
          "internalType": "bool",
          "name": "upkeepNeeded",
          "type": "bool"
        },
        {
          "internalType": "bytes",
          "name": "",
          "type": "bytes"
        }
      ],
      "stateMutability": "view",
      "type": "function"
    },
    {
      "inputs": [
        {
          "internalType": "uint256",
          "name": "value",
          "type": "uint256"
        }
      ],
      "name": "enterRaffle",
      "outputs": [],
      "stateMutability": "payable",
      "type": "function"
    },
    {
      "inputs": [],
      "name": "getEntranceFee",
      "outputs": [
        {
          "internalType": "uint256",
          "name": "",
          "type": "uint256"
        }
      ],
      "stateMutability": "view",
      "type": "function"
    },
    {
      "inputs": [],
      "name": "getRaffleState",
      "outputs": [
        {
          "internalType": "enum Raffle.RaffleState",
          "name": "",
          "type": "uint8"
        }
      ],
      "stateMutability": "view",
      "type": "function"
    },
    {
      "inputs": [],
      "name": "getRecentWinner",
      "outputs": [
        {
          "internalType": "address",
          "name": "",
          "type": "address"
        }
      ],
      "stateMutability": "view",
      "type": "function"
    },
    {
      "inputs": [
        {
          "internalType": "uint256",
          "name": "index",
          "type": "uint256"
        }
      ],
      "name": "getgPlayer",
      "outputs": [
        {
          "internalType": "address",
          "name": "",
          "type": "address"
        }
      ],
      "stateMutability": "view",
      "type": "function"
    },
    {
      "inputs": [
        {
          "internalType": "bytes",
          "name": "",
          "type": "bytes"
        }
      ],
      "name": "performUpkeep",
      "outputs": [],
      "stateMutability": "nonpayable",
      "type": "function"
    },
    {
      "inputs": [
        {
          "internalType": "uint256",
          "name": "requestId",
          "type": "uint256"
        },
        {
          "internalType": "uint256[]",
          "name": "randomWords",
          "type": "uint256[]"
        }
      ],
      "name": "rawFulfillRandomWords",
      "outputs": [],
      "stateMutability": "nonpayable",
      "type": "function"
    }
  ],
  "bytecode": "0x6101606040523480156200001257600080fd5b506040516200170b3803806200170b8339818101604052810190620000389190620001ad565b858073ffffffffffffffffffffffffffffffffffffffff1660808173ffffffffffffffffffffffffffffffffffffffff1660601b81525050508460a081815250508573ffffffffffffffffffffffffffffffffffffffff1660c08173ffffffffffffffffffffffffffffffffffffffff1660601b815250508360e081815250508267ffffffffffffffff166101008167ffffffffffffffff1660c01b815250508163ffffffff166101208163ffffffff1660e01b815250506000600160146101000a81548160ff02191690836001811115620001195762000118620002b5565b5b0217905550806101408181525050426002819055505050505050506200036b565b6000815190506200014b81620002e9565b92915050565b600081519050620001628162000303565b92915050565b60008151905062000179816200031d565b92915050565b600081519050620001908162000337565b92915050565b600081519050620001a78162000351565b92915050565b60008060008060008060c08789031215620001cd57620001cc620002e4565b5b6000620001dd89828a016200013a565b9650506020620001f089828a0162000168565b95505060406200020389828a0162000151565b94505060606200021689828a0162000196565b93505060806200022989828a016200017f565b92505060a06200023c89828a0162000168565b9150509295509295509295565b6000620002568262000267565b9050919050565b6000819050919050565b600073ffffffffffffffffffffffffffffffffffffffff82169050919050565b6000819050919050565b600063ffffffff82169050919050565b600067ffffffffffffffff82169050919050565b7f4e487b7100000000000000000000000000000000000000000000000000000000600052602160045260246000fd5b600080fd5b620002f48162000249565b81146200030057600080fd5b50565b6200030e816200025d565b81146200031a57600080fd5b50565b620003288162000287565b81146200033457600080fd5b50565b620003428162000291565b81146200034e57600080fd5b50565b6200035c81620002a1565b81146200036857600080fd5b50565b60805160601c60a05160c05160601c60e0516101005160c01c6101205160e01c6101405161132b620003e0600039600061069d015260006105900152600061056d0152600061054c015260006105100152600081816101ee015261035801526000818161022b015261027f015261132b6000f3fe60806040526004361061007b5760003560e01c80634585e33b1161004e5780634585e33b1461011b578063473f1ddc146101445780636e04ff0d1461016f578063db19b459146101ad5761007b565b806309bc33a714610080578063115cbaf5146100ab5780631fe543e3146100d65780632e519f90146100ff575b600080fd5b34801561008c57600080fd5b506100956101ea565b6040516100a29190610f31565b60405180910390f35b3480156100b757600080fd5b506100c0610212565b6040516100cd9190610f16565b60405180910390f35b3480156100e257600080fd5b506100fd60048036038101906100f89190610d0a565b610229565b005b61011960048036038101906101149190610cb0565b6102e9565b005b34801561012757600080fd5b50610142600480360381019061013d9190610c1a565b610459565b005b34801561015057600080fd5b50610159610658565b6040516101669190610e4f565b60405180910390f35b34801561017b57600080fd5b5061019660048036038101906101919190610c67565b610682565b6040516101a4929190610e93565b60405180910390f35b3480156101b957600080fd5b506101d460048036038101906101cf9190610cb0565b61072e565b6040516101e19190610e4f565b60405180910390f35b60007f0000000000000000000000000000000000000000000000000000000000000000905090565b6000600160149054906101000a900460ff16905090565b7f000000000000000000000000000000000000000000000000000000000000000073ffffffffffffffffffffffffffffffffffffffff163373ffffffffffffffffffffffffffffffffffffffff16146102db57337f00000000000000000000000000000000000000000000000000000000000000006040517f1cf993f40000000000000000000000000000000000000000000000000000000081526004016102d2929190610e6a565b60405180910390fd5b6102e58282610775565b5050565b600060018111156102fd576102fc61120b565b5b600160149054906101000a900460ff16600181111561031f5761031e61120b565b5b14610356576040517f1425571c00000000000000000000000000000000000000000000000000000000815260040160405180910390fd5b7f00000000000000000000000000000000000000000000000000000000000000008110156103b0576040517f940e2f9300000000000000000000000000000000000000000000000000000000815260040160405180910390fd5b6000339080600181540180825580915050600190039060005260206000200160009091909190916101000a81548173ffffffffffffffffffffffffffffffffffffffff021916908373ffffffffffffffffffffffffffffffffffffffff1602179055503373ffffffffffffffffffffffffffffffffffffffff167f0805e1d667bddb8a95f0f09880cf94f403fb596ce79928d9f29b74203ba284d460405160405180910390a250565b600061047360405180602001604052806000815250610682565b509050806104e25747600080549050600160149054906101000a900460ff1660018111156104a4576104a361120b565b5b6040517f3a8d60860000000000000000000000000000000000000000000000000000000081526004016104d993929190610f4c565b60405180910390fd5b60018060146101000a81548160ff021916908360018111156105075761050661120b565b5b021790555060007f000000000000000000000000000000000000000000000000000000000000000073ffffffffffffffffffffffffffffffffffffffff16635d3b1d307f00000000000000000000000000000000000000000000000000000000000000007f000000000000000000000000000000000000000000000000000000000000000060037f000000000000000000000000000000000000000000000000000000000000000060016040518663ffffffff1660e01b81526004016105d1959493929190610ec3565b602060405180830381600087803b1580156105eb57600080fd5b505af11580156105ff573d6000803e3d6000fd5b505050506040513d601f19601f820116820180604052508101906106239190610cdd565b9050807f1fdb98b76b1b3b27773e9b68731f3f794f7fa77cc7944398a85c3cce41c7524760405160405180910390a250505050565b6000600160009054906101000a900473ffffffffffffffffffffffffffffffffffffffff16905090565b600060606000804711905060008060008054905011905060007f0000000000000000000000000000000000000000000000000000000000000000600254426106ca919061102c565b11905060008060018111156106e2576106e161120b565b5b600160149054906101000a900460ff1660018111156107045761070361120b565b5b1490508380156107115750825b801561071a5750815b80156107235750805b955050505050915091565b60008082815481106107435761074261123a565b5b9060005260206000200160009054906101000a900473ffffffffffffffffffffffffffffffffffffffff169050919050565b60008080549050826000815181106107905761078f61123a565b5b60200260200101516107a2919061117c565b9050600081815481106107b8576107b761123a565b5b9060005260206000200160009054906101000a900473ffffffffffffffffffffffffffffffffffffffff16600160006101000a81548173ffffffffffffffffffffffffffffffffffffffff021916908373ffffffffffffffffffffffffffffffffffffffff1602179055506000600160009054906101000a900473ffffffffffffffffffffffffffffffffffffffff1673ffffffffffffffffffffffffffffffffffffffff164760405161086b90610e3a565b60006040518083038185875af1925050503d80600081146108a8576040519150601f19603f3d011682016040523d82523d6000602084013e6108ad565b606091505b505090506000600160146101000a81548160ff021916908360018111156108d7576108d661120b565b5b0217905550426002819055508061091a576040517fa1d04b3900000000000000000000000000000000000000000000000000000000815260040160405180910390fd5b600067ffffffffffffffff81111561093557610934611269565b5b6040519080825280602002602001820160405280156109635781602001602082028036833780820191505090505b50600090805190602001906109799291906109e5565b50600160009054906101000a900473ffffffffffffffffffffffffffffffffffffffff1673ffffffffffffffffffffffffffffffffffffffff167f5b690ec4a06fe979403046eaeea5b3ce38524683c3001f662c8b5a829632f7df60405160405180910390a250505050565b828054828255906000526020600020908101928215610a5e579160200282015b82811115610a5d5782518260006101000a81548173ffffffffffffffffffffffffffffffffffffffff021916908373ffffffffffffffffffffffffffffffffffffffff16021790555091602001919060010190610a05565b5b509050610a6b9190610a6f565b5090565b5b80821115610a88576000816000905550600101610a70565b5090565b6000610a9f610a9a84610fa8565b610f83565b90508083825260208201905082856020860282011115610ac257610ac16112a2565b5b60005b85811015610af25781610ad88882610bf0565b845260208401935060208301925050600181019050610ac5565b5050509392505050565b6000610b0f610b0a84610fd4565b610f83565b905082815260208101848484011115610b2b57610b2a6112a7565b5b610b36848285611109565b509392505050565b600082601f830112610b5357610b5261129d565b5b8135610b63848260208601610a8c565b91505092915050565b60008083601f840112610b8257610b8161129d565b5b8235905067ffffffffffffffff811115610b9f57610b9e611298565b5b602083019150836001820283011115610bbb57610bba6112a2565b5b9250929050565b600082601f830112610bd757610bd661129d565b5b8135610be7848260208601610afc565b91505092915050565b600081359050610bff816112de565b92915050565b600081519050610c14816112de565b92915050565b60008060208385031215610c3157610c306112b1565b5b600083013567ffffffffffffffff811115610c4f57610c4e6112ac565b5b610c5b85828601610b6c565b92509250509250929050565b600060208284031215610c7d57610c7c6112b1565b5b600082013567ffffffffffffffff811115610c9b57610c9a6112ac565b5b610ca784828501610bc2565b91505092915050565b600060208284031215610cc657610cc56112b1565b5b6000610cd484828501610bf0565b91505092915050565b600060208284031215610cf357610cf26112b1565b5b6000610d0184828501610c05565b91505092915050565b60008060408385031215610d2157610d206112b1565b5b6000610d2f85828601610bf0565b925050602083013567ffffffffffffffff811115610d5057610d4f6112ac565b5b610d5c85828601610b3e565b9150509250929050565b610d6f81611060565b82525050565b610d7e81611072565b82525050565b610d8d8161107e565b82525050565b6000610d9e82611005565b610da88185611010565b9350610db8818560208601611118565b610dc1816112b6565b840191505092915050565b610dd5816110f7565b82525050565b6000610de8600083611021565b9150610df3826112c7565b600082019050919050565b610e078161109b565b82525050565b610e16816110c9565b82525050565b610e25816110d3565b82525050565b610e34816110e3565b82525050565b6000610e4582610ddb565b9150819050919050565b6000602082019050610e646000830184610d66565b92915050565b6000604082019050610e7f6000830185610d66565b610e8c6020830184610d66565b9392505050565b6000604082019050610ea86000830185610d75565b8181036020830152610eba8184610d93565b90509392505050565b600060a082019050610ed86000830188610d84565b610ee56020830187610e2b565b610ef26040830186610dfe565b610eff6060830185610e1c565b610f0c6080830184610e1c565b9695505050505050565b6000602082019050610f2b6000830184610dcc565b92915050565b6000602082019050610f466000830184610e0d565b92915050565b6000606082019050610f616000830186610e0d565b610f6e6020830185610e0d565b610f7b6040830184610e0d565b949350505050565b6000610f8d610f9e565b9050610f99828261114b565b919050565b6000604051905090565b600067ffffffffffffffff821115610fc357610fc2611269565b5b602082029050602081019050919050565b600067ffffffffffffffff821115610fef57610fee611269565b5b610ff8826112b6565b9050602081019050919050565b600081519050919050565b600082825260208201905092915050565b600081905092915050565b6000611037826110c9565b9150611042836110c9565b925082821015611055576110546111ad565b5b828203905092915050565b600061106b826110a9565b9050919050565b60008115159050919050565b6000819050919050565b6000819050611096826112ca565b919050565b600061ffff82169050919050565b600073ffffffffffffffffffffffffffffffffffffffff82169050919050565b6000819050919050565b600063ffffffff82169050919050565b600067ffffffffffffffff82169050919050565b600061110282611088565b9050919050565b82818337600083830152505050565b60005b8381101561113657808201518184015260208101905061111b565b83811115611145576000848401525b50505050565b611154826112b6565b810181811067ffffffffffffffff8211171561117357611172611269565b5b80604052505050565b6000611187826110c9565b9150611192836110c9565b9250826111a2576111a16111dc565b5b828206905092915050565b7f4e487b7100000000000000000000000000000000000000000000000000000000600052601160045260246000fd5b7f4e487b7100000000000000000000000000000000000000000000000000000000600052601260045260246000fd5b7f4e487b7100000000000000000000000000000000000000000000000000000000600052602160045260246000fd5b7f4e487b7100000000000000000000000000000000000000000000000000000000600052603260045260246000fd5b7f4e487b7100000000000000000000000000000000000000000000000000000000600052604160045260246000fd5b600080fd5b600080fd5b600080fd5b600080fd5b600080fd5b600080fd5b6000601f19601f8301169050919050565b50565b600281106112db576112da61120b565b5b50565b6112e7816110c9565b81146112f257600080fd5b5056fea264697066735822122003baa6a9d05b19531d17f90f9342cb85947483d1bb5e41f5d39a85caae42ec9864736f6c63430008070033",
  "linkReferences": {},
  "deployedLinkReferences": {}
}