{
  "_format": "hh-sol-artifact-1",
  "contractName": "Raffle",
  "sourceName": "contracts/Raffle.sol",
  "abi": [
    {
      "inputs": [
        {
          "internalType": "address",
          "name": "vrfCoordinatorV2",
          "type": "address"
        },
        {
          "internalType": "uint256",
          "name": "entranceFree",
          "type": "uint256"
        },
        {
          "internalType": "bytes32",
          "name": "gasLine",
          "type": "bytes32"
        },
        {
          "internalType": "uint64",
          "name": "subscriptionId",
          "type": "uint64"
        },
        {
          "internalType": "uint32",
          "name": "callbackGasLimit",
          "type": "uint32"
        }
      ],
      "stateMutability": "nonpayable",
      "type": "constructor"
    },
    {
      "inputs": [
        {
          "internalType": "address",
          "name": "have",
          "type": "address"
        },
        {
          "internalType": "address",
          "name": "want",
          "type": "address"
        }
      ],
      "name": "OnlyCoordinatorCanFulfill",
      "type": "error"
    },
    {
      "inputs": [],
      "name": "Raffle__NOTEnoughETHError",
      "type": "error"
    },
    {
      "inputs": [],
      "name": "Raffle__TransferFailed",
      "type": "error"
    },
    {
      "anonymous": false,
      "inputs": [
        {
          "indexed": true,
          "internalType": "uint256",
          "name": "requrestId",
          "type": "uint256"
        }
      ],
      "name": "RequrestedRaffleWinner",
      "type": "event"
    },
    {
      "anonymous": false,
      "inputs": [
        {
          "indexed": true,
          "internalType": "address",
          "name": "player",
          "type": "address"
        }
      ],
      "name": "raffleEnter",
      "type": "event"
    },
    {
      "inputs": [
        {
          "internalType": "uint256",
          "name": "value",
          "type": "uint256"
        }
      ],
      "name": "enterRaffle",
      "outputs": [],
      "stateMutability": "payable",
      "type": "function"
    },
    {
      "inputs": [],
      "name": "getEntranceFee",
      "outputs": [
        {
          "internalType": "uint256",
          "name": "",
          "type": "uint256"
        }
      ],
      "stateMutability": "view",
      "type": "function"
    },
    {
      "inputs": [],
      "name": "getRecentWinner",
      "outputs": [
        {
          "internalType": "address",
          "name": "",
          "type": "address"
        }
      ],
      "stateMutability": "view",
      "type": "function"
    },
    {
      "inputs": [
        {
          "internalType": "uint256",
          "name": "index",
          "type": "uint256"
        }
      ],
      "name": "getgPlayer",
      "outputs": [
        {
          "internalType": "address",
          "name": "",
          "type": "address"
        }
      ],
      "stateMutability": "view",
      "type": "function"
    },
    {
      "inputs": [
        {
          "internalType": "uint256",
          "name": "requestId",
          "type": "uint256"
        },
        {
          "internalType": "uint256[]",
          "name": "randomWords",
          "type": "uint256[]"
        }
      ],
      "name": "rawFulfillRandomWords",
      "outputs": [],
      "stateMutability": "nonpayable",
      "type": "function"
    },
    {
      "inputs": [],
      "name": "requrestRandomWinner",
      "outputs": [],
      "stateMutability": "nonpayable",
      "type": "function"
    }
  ],
  "bytecode": "0x6101406040523480156200001257600080fd5b5060405162000eb438038062000eb483398181016040528101906200003891906200016e565b848073ffffffffffffffffffffffffffffffffffffffff1660808173ffffffffffffffffffffffffffffffffffffffff1660601b81525050508360a081815250508473ffffffffffffffffffffffffffffffffffffffff1660c08173ffffffffffffffffffffffffffffffffffffffff1660601b815250508260e081815250508167ffffffffffffffff166101008167ffffffffffffffff1660c01b815250508063ffffffff166101208163ffffffff1660e01b815250505050505050620002e9565b6000815190506200010c8162000267565b92915050565b600081519050620001238162000281565b92915050565b6000815190506200013a816200029b565b92915050565b6000815190506200015181620002b5565b92915050565b6000815190506200016881620002cf565b92915050565b600080600080600060a086880312156200018d576200018c62000262565b5b60006200019d88828901620000fb565b9550506020620001b08882890162000129565b9450506040620001c38882890162000112565b9350506060620001d68882890162000157565b9250506080620001e98882890162000140565b9150509295509295909350565b6000620002038262000214565b9050919050565b6000819050919050565b600073ffffffffffffffffffffffffffffffffffffffff82169050919050565b6000819050919050565b600063ffffffff82169050919050565b600067ffffffffffffffff82169050919050565b600080fd5b6200027281620001f6565b81146200027e57600080fd5b50565b6200028c816200020a565b81146200029857600080fd5b50565b620002a68162000234565b8114620002b257600080fd5b50565b620002c0816200023e565b8114620002cc57600080fd5b50565b620002da816200024e565b8114620002e657600080fd5b50565b60805160601c60a05160c05160601c60e0516101005160c01c6101205160e01c610b616200035360003960006103e2015260006103bf0152600061039e0152600061036201526000818161014d015261023301526000818161017301526101c70152610b616000f3fe6080604052600436106100555760003560e01c806309bc33a71461005a5780631fe543e3146100855780632e519f90146100ae578063473f1ddc146100ca57806381f730e4146100f5578063db19b4591461010c575b600080fd5b34801561006657600080fd5b5061006f610149565b60405161007c919061090e565b60405180910390f35b34801561009157600080fd5b506100ac60048036038101906100a79190610789565b610171565b005b6100c860048036038101906100c3919061072f565b610231565b005b3480156100d657600080fd5b506100df610334565b6040516100ec9190610877565b60405180910390f35b34801561010157600080fd5b5061010a61035e565b005b34801561011857600080fd5b50610133600480360381019061012e919061072f565b6104a7565b6040516101409190610877565b60405180910390f35b60007f0000000000000000000000000000000000000000000000000000000000000000905090565b7f000000000000000000000000000000000000000000000000000000000000000073ffffffffffffffffffffffffffffffffffffffff163373ffffffffffffffffffffffffffffffffffffffff161461022357337f00000000000000000000000000000000000000000000000000000000000000006040517f1cf993f400000000000000000000000000000000000000000000000000000000815260040161021a929190610892565b60405180910390fd5b61022d82826104ee565b5050565b7f000000000000000000000000000000000000000000000000000000000000000081101561028b576040517f940e2f9300000000000000000000000000000000000000000000000000000000815260040160405180910390fd5b6000339080600181540180825580915050600190039060005260206000200160009091909190916101000a81548173ffffffffffffffffffffffffffffffffffffffff021916908373ffffffffffffffffffffffffffffffffffffffff1602179055503373ffffffffffffffffffffffffffffffffffffffff167f742d070bf0f3edace132a9da8ba725e8cf99c478869cee7f673ed6085e2f8e6460405160405180910390a250565b6000600160009054906101000a900473ffffffffffffffffffffffffffffffffffffffff16905090565b60007f000000000000000000000000000000000000000000000000000000000000000073ffffffffffffffffffffffffffffffffffffffff16635d3b1d307f00000000000000000000000000000000000000000000000000000000000000007f000000000000000000000000000000000000000000000000000000000000000060037f000000000000000000000000000000000000000000000000000000000000000060016040518663ffffffff1660e01b81526004016104239594939291906108bb565b602060405180830381600087803b15801561043d57600080fd5b505af1158015610451573d6000803e3d6000fd5b505050506040513d601f19601f82011682018060405250810190610475919061075c565b9050807f1fdb98b76b1b3b27773e9b68731f3f794f7fa77cc7944398a85c3cce41c7524760405160405180910390a250565b60008082815481106104bc576104bb610a8e565b5b9060005260206000200160009054906101000a900473ffffffffffffffffffffffffffffffffffffffff169050919050565b600080805490508260008151811061050957610508610a8e565b5b602002602001015161051b9190610a2e565b90506000818154811061053157610530610a8e565b5b9060005260206000200160009054906101000a900473ffffffffffffffffffffffffffffffffffffffff16600160006101000a81548173ffffffffffffffffffffffffffffffffffffffff021916908373ffffffffffffffffffffffffffffffffffffffff1602179055506000600160009054906101000a900473ffffffffffffffffffffffffffffffffffffffff1673ffffffffffffffffffffffffffffffffffffffff16476040516105e490610862565b60006040518083038185875af1925050503d8060008114610621576040519150601f19603f3d011682016040523d82523d6000602084013e610626565b606091505b5050905080610661576040517fa1d04b3900000000000000000000000000000000000000000000000000000000815260040160405180910390fd5b50505050565b600061067a6106758461094e565b610929565b9050808382526020820190508285602086028201111561069d5761069c610af1565b5b60005b858110156106cd57816106b38882610705565b8452602084019350602083019250506001810190506106a0565b5050509392505050565b600082601f8301126106ec576106eb610aec565b5b81356106fc848260208601610667565b91505092915050565b60008135905061071481610b14565b92915050565b60008151905061072981610b14565b92915050565b60006020828403121561074557610744610afb565b5b600061075384828501610705565b91505092915050565b60006020828403121561077257610771610afb565b5b60006107808482850161071a565b91505092915050565b600080604083850312156107a05761079f610afb565b5b60006107ae85828601610705565b925050602083013567ffffffffffffffff8111156107cf576107ce610af6565b5b6107db858286016106d7565b9150509250929050565b6107ee81610985565b82525050565b6107fd81610997565b82525050565b600061081060008361097a565b915061081b82610b11565b600082019050919050565b61082f816109a1565b82525050565b61083e816109cf565b82525050565b61084d816109d9565b82525050565b61085c816109e9565b82525050565b600061086d82610803565b9150819050919050565b600060208201905061088c60008301846107e5565b92915050565b60006040820190506108a760008301856107e5565b6108b460208301846107e5565b9392505050565b600060a0820190506108d060008301886107f4565b6108dd6020830187610853565b6108ea6040830186610826565b6108f76060830185610844565b6109046080830184610844565b9695505050505050565b60006020820190506109236000830184610835565b92915050565b6000610933610944565b905061093f82826109fd565b919050565b6000604051905090565b600067ffffffffffffffff82111561096957610968610abd565b5b602082029050602081019050919050565b600081905092915050565b6000610990826109af565b9050919050565b6000819050919050565b600061ffff82169050919050565b600073ffffffffffffffffffffffffffffffffffffffff82169050919050565b6000819050919050565b600063ffffffff82169050919050565b600067ffffffffffffffff82169050919050565b610a0682610b00565b810181811067ffffffffffffffff82111715610a2557610a24610abd565b5b80604052505050565b6000610a39826109cf565b9150610a44836109cf565b925082610a5457610a53610a5f565b5b828206905092915050565b7f4e487b7100000000000000000000000000000000000000000000000000000000600052601260045260246000fd5b7f4e487b7100000000000000000000000000000000000000000000000000000000600052603260045260246000fd5b7f4e487b7100000000000000000000000000000000000000000000000000000000600052604160045260246000fd5b600080fd5b600080fd5b600080fd5b600080fd5b6000601f19601f8301169050919050565b50565b610b1d816109cf565b8114610b2857600080fd5b5056fea2646970667358221220dfc748d5da917efdb5a960b4db4302500732f7dbe1c3a749c3f0aff1488a9f9564736f6c63430008070033",
  "linkReferences": {},
  "deployedLinkReferences": {}
}